{
  "contractName": "Marketplace",
  "abi": [
    {
      "inputs": [],
      "stateMutability": "nonpayable",
      "type": "constructor"
    },
    {
      "anonymous": false,
      "inputs": [
        {
          "indexed": false,
          "internalType": "address",
          "name": "seller",
          "type": "address"
        },
        {
          "indexed": false,
          "internalType": "uint256",
          "name": "price",
          "type": "uint256"
        }
      ],
      "name": "ListItem",
      "type": "event"
    },
    {
      "anonymous": false,
      "inputs": [
        {
          "indexed": false,
          "internalType": "address",
          "name": "seller",
          "type": "address"
        },
        {
          "indexed": false,
          "internalType": "address",
          "name": "buyer",
          "type": "address"
        },
        {
          "indexed": false,
          "internalType": "uint256",
          "name": "price",
          "type": "uint256"
        }
      ],
      "name": "PurchasedItem",
      "type": "event"
    },
    {
      "inputs": [],
      "name": "State",
      "outputs": [
        {
          "internalType": "enum Marketplace.StateType",
          "name": "",
          "type": "uint8"
        }
      ],
      "stateMutability": "view",
      "type": "function"
    },
    {
      "inputs": [
        {
          "internalType": "address",
          "name": "",
          "type": "address"
        }
      ],
      "name": "balances",
      "outputs": [
        {
          "internalType": "uint256",
          "name": "",
          "type": "uint256"
        }
      ],
      "stateMutability": "view",
      "type": "function"
    },
    {
      "inputs": [],
      "name": "seller",
      "outputs": [
        {
          "internalType": "address",
          "name": "",
          "type": "address"
        }
      ],
      "stateMutability": "view",
      "type": "function"
    },
    {
      "inputs": [
        {
          "internalType": "address",
          "name": "buyer",
          "type": "address"
        },
        {
          "internalType": "uint256",
          "name": "price",
          "type": "uint256"
        }
      ],
      "name": "buy",
      "outputs": [],
      "stateMutability": "payable",
      "type": "function"
    },
    {
      "inputs": [
        {
          "internalType": "address",
          "name": "player",
          "type": "address"
        },
        {
          "internalType": "uint256",
          "name": "balance",
          "type": "uint256"
        }
      ],
      "name": "setBalance",
      "outputs": [],
      "stateMutability": "payable",
      "type": "function"
    }
  ],
  "bytecode": "0x608060405234801561000f575f80fd5b50335f806101000a81548173ffffffffffffffffffffffffffffffffffffffff021916908373ffffffffffffffffffffffffffffffffffffffff1602179055505f60025f6101000a81548160ff021916908360018111156100735761007261007d565b5b02179055506100aa565b7f4e487b71000000000000000000000000000000000000000000000000000000005f52602160045260245ffd5b6106bf806100b75f395ff3fe608060405260043610610049575f3560e01c806308551a531461004d57806327e235e314610077578063cce7ec13146100b3578063e30443bc146100cf578063f1b6dccd146100eb575b5f80fd5b348015610058575f80fd5b50610061610115565b60405161006e91906103b2565b60405180910390f35b348015610082575f80fd5b5061009d600480360381019061009891906103f9565b610138565b6040516100aa919061043c565b60405180910390f35b6100cd60048036038101906100c8919061047f565b61014d565b005b6100e960048036038101906100e4919061047f565b61031b565b005b3480156100f6575f80fd5b506100ff610361565b60405161010c9190610530565b60405180910390f35b5f8054906101000a900473ffffffffffffffffffffffffffffffffffffffff1681565b6001602052805f5260405f205f915090505481565b60015f8373ffffffffffffffffffffffffffffffffffffffff1673ffffffffffffffffffffffffffffffffffffffff1681526020019081526020015f20548111156101cd576040517f08c379a00000000000000000000000000000000000000000000000000000000081526004016101c4906105a3565b60405180910390fd5b600160025f6101000a81548160ff021916908360018111156101f2576101f16104bd565b5b02179055508060015f8473ffffffffffffffffffffffffffffffffffffffff1673ffffffffffffffffffffffffffffffffffffffff1681526020019081526020015f205f82825461024391906105ee565b925050819055508060015f805f9054906101000a900473ffffffffffffffffffffffffffffffffffffffff1673ffffffffffffffffffffffffffffffffffffffff1673ffffffffffffffffffffffffffffffffffffffff1681526020019081526020015f205f8282546102b69190610621565b925050819055507f2114172e14ede64480d6a396d65773782893da59db91a47c82c4fe60c9e1fcf55f8054906101000a900473ffffffffffffffffffffffffffffffffffffffff16833460405161030f93929190610654565b60405180910390a15050565b8060015f8473ffffffffffffffffffffffffffffffffffffffff1673ffffffffffffffffffffffffffffffffffffffff1681526020019081526020015f20819055505050565b60025f9054906101000a900460ff1681565b5f73ffffffffffffffffffffffffffffffffffffffff82169050919050565b5f61039c82610373565b9050919050565b6103ac81610392565b82525050565b5f6020820190506103c55f8301846103a3565b92915050565b5f80fd5b6103d881610392565b81146103e2575f80fd5b50565b5f813590506103f3816103cf565b92915050565b5f6020828403121561040e5761040d6103cb565b5b5f61041b848285016103e5565b91505092915050565b5f819050919050565b61043681610424565b82525050565b5f60208201905061044f5f83018461042d565b92915050565b61045e81610424565b8114610468575f80fd5b50565b5f8135905061047981610455565b92915050565b5f8060408385031215610495576104946103cb565b5b5f6104a2858286016103e5565b92505060206104b38582860161046b565b9150509250929050565b7f4e487b71000000000000000000000000000000000000000000000000000000005f52602160045260245ffd5b600281106104fb576104fa6104bd565b5b50565b5f81905061050b826104ea565b919050565b5f61051a826104fe565b9050919050565b61052a81610510565b82525050565b5f6020820190506105435f830184610521565b92915050565b5f82825260208201905092915050565b7f496e73756666696369656e742062616c616e63650000000000000000000000005f82015250565b5f61058d601483610549565b915061059882610559565b602082019050919050565b5f6020820190508181035f8301526105ba81610581565b9050919050565b7f4e487b71000000000000000000000000000000000000000000000000000000005f52601160045260245ffd5b5f6105f882610424565b915061060383610424565b925082820390508181111561061b5761061a6105c1565b5b92915050565b5f61062b82610424565b915061063683610424565b925082820190508082111561064e5761064d6105c1565b5b92915050565b5f6060820190506106675f8301866103a3565b61067460208301856103a3565b610681604083018461042d565b94935050505056fea2646970667358221220c42f7427c35350187496181fdab96f5cd4dfc4f98c763a6ac0b63817be5e4d2364736f6c63430008150033",
  "immutableReferences": {},
  "source": "//SPDX-License-Identifier: UNLICENSED\r\npragma solidity >0.8.0;\r\n\r\n\r\ncontract Marketplace {\r\n    address public seller;\r\n    //address public buyer;\r\n    mapping (address => uint) public balances;\r\n\r\n    event ListItem(address seller, uint price);\r\n    event PurchasedItem(address seller, address buyer, uint price);\r\n\r\n    enum StateType {\r\n          ItemAvailable,\r\n          ItemPurchased\r\n    }\r\n\r\n    StateType public State;\r\n\r\n    constructor() {\r\n        seller = msg.sender;\r\n        State = StateType.ItemAvailable;\r\n    }\r\n\r\n    function buy(address buyer, uint price) public payable {\r\n        require(price <= balances[buyer], \"Insufficient balance\");\r\n        State = StateType.ItemPurchased;\r\n        balances[buyer] -= price;\r\n        balances[seller] += price;\r\n\r\n        emit PurchasedItem(seller, buyer, msg.value);\r\n    }\r\n\r\n    function setBalance(address player, uint balance) public payable {\r\n        balances[player] = balance;\r\n    }\r\n\r\n}",
  "sourcePath": "c:\\1Projects\\BlockChain\\newSolidityProject\\contracts\\Marketplace.sol",
  "compiler": {
    "name": "solc",
    "version": "0.8.21+commit.d9974bed.Emscripten.clang"
  },
  "schemaVersion": "3.4.16",
  "updatedAt": "2024-05-22T08:12:12.504Z",
  "devdoc": {
    "kind": "dev",
    "methods": {},
    "version": 1
  },
  "userdoc": {
    "kind": "user",
    "methods": {},
    "version": 1
  }
}